{
  "contractName": "Exchange",
  "abi": [
    {
      "inputs": [
        {
          "internalType": "address",
          "name": "_feeAccount",
          "type": "address"
        },
        {
          "internalType": "uint256",
          "name": "_feePercent",
          "type": "uint256"
        }
      ],
      "stateMutability": "nonpayable",
      "type": "constructor"
    },
    {
      "anonymous": false,
      "inputs": [
        {
          "indexed": false,
          "internalType": "uint256",
          "name": "id",
          "type": "uint256"
        },
        {
          "indexed": false,
          "internalType": "address",
          "name": "user",
          "type": "address"
        },
        {
          "indexed": false,
          "internalType": "address",
          "name": "tokenGet",
          "type": "address"
        },
        {
          "indexed": false,
          "internalType": "uint256",
          "name": "amountGet",
          "type": "uint256"
        },
        {
          "indexed": false,
          "internalType": "address",
          "name": "tokenGive",
          "type": "address"
        },
        {
          "indexed": false,
          "internalType": "uint256",
          "name": "amountGive",
          "type": "uint256"
        },
        {
          "indexed": false,
          "internalType": "uint256",
          "name": "timestamp",
          "type": "uint256"
        }
      ],
      "name": "Cancel",
      "type": "event"
    },
    {
      "anonymous": false,
      "inputs": [
        {
          "indexed": false,
          "internalType": "address",
          "name": "token",
          "type": "address"
        },
        {
          "indexed": false,
          "internalType": "address",
          "name": "user",
          "type": "address"
        },
        {
          "indexed": false,
          "internalType": "uint256",
          "name": "amount",
          "type": "uint256"
        },
        {
          "indexed": false,
          "internalType": "uint256",
          "name": "balance",
          "type": "uint256"
        }
      ],
      "name": "Deposit",
      "type": "event"
    },
    {
      "anonymous": false,
      "inputs": [
        {
          "indexed": false,
          "internalType": "uint256",
          "name": "id",
          "type": "uint256"
        },
        {
          "indexed": false,
          "internalType": "address",
          "name": "user",
          "type": "address"
        },
        {
          "indexed": false,
          "internalType": "address",
          "name": "tokenGet",
          "type": "address"
        },
        {
          "indexed": false,
          "internalType": "uint256",
          "name": "amountGet",
          "type": "uint256"
        },
        {
          "indexed": false,
          "internalType": "address",
          "name": "tokenGive",
          "type": "address"
        },
        {
          "indexed": false,
          "internalType": "uint256",
          "name": "amountGive",
          "type": "uint256"
        },
        {
          "indexed": false,
          "internalType": "uint256",
          "name": "timestamp",
          "type": "uint256"
        }
      ],
      "name": "Order",
      "type": "event"
    },
    {
      "anonymous": false,
      "inputs": [
        {
          "indexed": false,
          "internalType": "uint256",
          "name": "id",
          "type": "uint256"
        },
        {
          "indexed": false,
          "internalType": "address",
          "name": "user",
          "type": "address"
        },
        {
          "indexed": false,
          "internalType": "address",
          "name": "tokenGet",
          "type": "address"
        },
        {
          "indexed": false,
          "internalType": "uint256",
          "name": "amountGet",
          "type": "uint256"
        },
        {
          "indexed": false,
          "internalType": "address",
          "name": "tokenGive",
          "type": "address"
        },
        {
          "indexed": false,
          "internalType": "uint256",
          "name": "amountGive",
          "type": "uint256"
        },
        {
          "indexed": false,
          "internalType": "address",
          "name": "userFill",
          "type": "address"
        },
        {
          "indexed": false,
          "internalType": "uint256",
          "name": "timestamp",
          "type": "uint256"
        }
      ],
      "name": "Trade",
      "type": "event"
    },
    {
      "anonymous": false,
      "inputs": [
        {
          "indexed": false,
          "internalType": "address",
          "name": "token",
          "type": "address"
        },
        {
          "indexed": false,
          "internalType": "address",
          "name": "user",
          "type": "address"
        },
        {
          "indexed": false,
          "internalType": "uint256",
          "name": "amount",
          "type": "uint256"
        },
        {
          "indexed": false,
          "internalType": "uint256",
          "name": "balance",
          "type": "uint256"
        }
      ],
      "name": "Withdraw",
      "type": "event"
    },
    {
      "inputs": [],
      "name": "feeAccount",
      "outputs": [
        {
          "internalType": "address",
          "name": "",
          "type": "address"
        }
      ],
      "stateMutability": "view",
      "type": "function",
      "constant": true
    },
    {
      "inputs": [],
      "name": "feePercent",
      "outputs": [
        {
          "internalType": "uint256",
          "name": "",
          "type": "uint256"
        }
      ],
      "stateMutability": "view",
      "type": "function",
      "constant": true
    },
    {
      "inputs": [
        {
          "internalType": "uint256",
          "name": "",
          "type": "uint256"
        }
      ],
      "name": "orderCancelled",
      "outputs": [
        {
          "internalType": "bool",
          "name": "",
          "type": "bool"
        }
      ],
      "stateMutability": "view",
      "type": "function",
      "constant": true
    },
    {
      "inputs": [],
      "name": "orderCount",
      "outputs": [
        {
          "internalType": "uint256",
          "name": "",
          "type": "uint256"
        }
      ],
      "stateMutability": "view",
      "type": "function",
      "constant": true
    },
    {
      "inputs": [
        {
          "internalType": "uint256",
          "name": "",
          "type": "uint256"
        }
      ],
      "name": "orderFilled",
      "outputs": [
        {
          "internalType": "bool",
          "name": "",
          "type": "bool"
        }
      ],
      "stateMutability": "view",
      "type": "function",
      "constant": true
    },
    {
      "inputs": [
        {
          "internalType": "uint256",
          "name": "",
          "type": "uint256"
        }
      ],
      "name": "orders",
      "outputs": [
        {
          "internalType": "uint256",
          "name": "id",
          "type": "uint256"
        },
        {
          "internalType": "address",
          "name": "user",
          "type": "address"
        },
        {
          "internalType": "address",
          "name": "tokenGet",
          "type": "address"
        },
        {
          "internalType": "uint256",
          "name": "amountGet",
          "type": "uint256"
        },
        {
          "internalType": "address",
          "name": "tokenGive",
          "type": "address"
        },
        {
          "internalType": "uint256",
          "name": "amountGive",
          "type": "uint256"
        },
        {
          "internalType": "uint256",
          "name": "timestamp",
          "type": "uint256"
        }
      ],
      "stateMutability": "view",
      "type": "function",
      "constant": true
    },
    {
      "inputs": [
        {
          "internalType": "address",
          "name": "",
          "type": "address"
        },
        {
          "internalType": "address",
          "name": "",
          "type": "address"
        }
      ],
      "name": "tokens",
      "outputs": [
        {
          "internalType": "uint256",
          "name": "",
          "type": "uint256"
        }
      ],
      "stateMutability": "view",
      "type": "function",
      "constant": true
    },
    {
      "inputs": [],
      "name": "fallback",
      "outputs": [],
      "stateMutability": "nonpayable",
      "type": "function"
    },
    {
      "inputs": [],
      "name": "depositEther",
      "outputs": [],
      "stateMutability": "payable",
      "type": "function",
      "payable": true
    },
    {
      "inputs": [
        {
          "internalType": "uint256",
          "name": "_amount",
          "type": "uint256"
        }
      ],
      "name": "withdrawEther",
      "outputs": [],
      "stateMutability": "nonpayable",
      "type": "function"
    },
    {
      "inputs": [
        {
          "internalType": "address",
          "name": "_token",
          "type": "address"
        },
        {
          "internalType": "uint256",
          "name": "_amount",
          "type": "uint256"
        }
      ],
      "name": "depositToken",
      "outputs": [],
      "stateMutability": "nonpayable",
      "type": "function"
    },
    {
      "inputs": [
        {
          "internalType": "address",
          "name": "_token",
          "type": "address"
        },
        {
          "internalType": "uint256",
          "name": "_amount",
          "type": "uint256"
        }
      ],
      "name": "withdrawTokens",
      "outputs": [],
      "stateMutability": "nonpayable",
      "type": "function"
    },
    {
      "inputs": [
        {
          "internalType": "address",
          "name": "_token",
          "type": "address"
        },
        {
          "internalType": "address",
          "name": "_user",
          "type": "address"
        }
      ],
      "name": "balanceOf",
      "outputs": [
        {
          "internalType": "uint256",
          "name": "",
          "type": "uint256"
        }
      ],
      "stateMutability": "view",
      "type": "function",
      "constant": true
    },
    {
      "inputs": [
        {
          "internalType": "address",
          "name": "_tokenGet",
          "type": "address"
        },
        {
          "internalType": "uint256",
          "name": "_amountGet",
          "type": "uint256"
        },
        {
          "internalType": "address",
          "name": "_tokenGive",
          "type": "address"
        },
        {
          "internalType": "uint256",
          "name": "_amountGive",
          "type": "uint256"
        }
      ],
      "name": "makeOrder",
      "outputs": [],
      "stateMutability": "nonpayable",
      "type": "function"
    },
    {
      "inputs": [
        {
          "internalType": "uint256",
          "name": "_id",
          "type": "uint256"
        }
      ],
      "name": "cancelOrder",
      "outputs": [],
      "stateMutability": "nonpayable",
      "type": "function"
    },
    {
      "inputs": [
        {
          "internalType": "uint256",
          "name": "_id",
          "type": "uint256"
        }
      ],
      "name": "fillOrder",
      "outputs": [],
      "stateMutability": "nonpayable",
      "type": "function"
    }
  ],
  "bytecode": "0x60806040523480156200001157600080fd5b50604051620021273803806200212783398181016040528101906200003791906200012b565b816000806101000a81548173ffffffffffffffffffffffffffffffffffffffff021916908373ffffffffffffffffffffffffffffffffffffffff16021790555080600181905550505062000172565b600080fd5b600073ffffffffffffffffffffffffffffffffffffffff82169050919050565b6000620000b8826200008b565b9050919050565b620000ca81620000ab565b8114620000d657600080fd5b50565b600081519050620000ea81620000bf565b92915050565b6000819050919050565b6200010581620000f0565b81146200011157600080fd5b50565b6000815190506200012581620000fa565b92915050565b6000806040838503121562000145576200014462000086565b5b60006200015585828601620000d9565b9250506020620001688582860162000114565b9150509250929050565b611fa580620001826000396000f3fe6080604052600436106100f35760003560e01c806365e17c9d1161008a5780639a5c90aa116100595780639a5c90aa146102e1578063a85c38ef1461030a578063e9c189661461034d578063f7888aec1461038a576100f3565b806365e17c9d1461025857806367b830ad146102835780637fd6f15c146102ac57806398ea5fca146102d7576100f3565b80634a93e0da116100c65780634a93e0da1461019e578063508493bc146101db578063514fcac714610218578063552079dc14610241576100f3565b806306b091f9146100f85780632453ffa814610121578063338b5dea1461014c5780633bed33ce14610175575b600080fd5b34801561010457600080fd5b5061011f600480360381019061011a9190611a9c565b6103c7565b005b34801561012d57600080fd5b50610136610656565b6040516101439190611aeb565b60405180910390f35b34801561015857600080fd5b50610173600480360381019061016e9190611a9c565b61065c565b005b34801561018157600080fd5b5061019c60048036038101906101979190611b06565b6108eb565b005b3480156101aa57600080fd5b506101c560048036038101906101c09190611b06565b610b87565b6040516101d29190611b4e565b60405180910390f35b3480156101e757600080fd5b5061020260048036038101906101fd9190611b69565b610ba7565b60405161020f9190611aeb565b60405180910390f35b34801561022457600080fd5b5061023f600480360381019061023a9190611b06565b610bcc565b005b34801561024d57600080fd5b50610256610d1a565b005b34801561026457600080fd5b5061026d610d1f565b60405161027a9190611bb8565b60405180910390f35b34801561028f57600080fd5b506102aa60048036038101906102a59190611b06565b610d43565b005b3480156102b857600080fd5b506102c1610e85565b6040516102ce9190611aeb565b60405180910390f35b6102df610e8b565b005b3480156102ed57600080fd5b5061030860048036038101906103039190611bd3565b611056565b005b34801561031657600080fd5b50610331600480360381019061032c9190611b06565b611249565b6040516103449796959493929190611c3a565b60405180910390f35b34801561035957600080fd5b50610374600480360381019061036f9190611b06565b6112eb565b6040516103819190611b4e565b60405180910390f35b34801561039657600080fd5b506103b160048036038101906103ac9190611b69565b61130b565b6040516103be9190611aeb565b60405180910390f35b600073ffffffffffffffffffffffffffffffffffffffff168273ffffffffffffffffffffffffffffffffffffffff16141561040157600080fd5b80600260008473ffffffffffffffffffffffffffffffffffffffff1673ffffffffffffffffffffffffffffffffffffffff16815260200190815260200160002060003373ffffffffffffffffffffffffffffffffffffffff1673ffffffffffffffffffffffffffffffffffffffff16815260200190815260200160002054101561048a57600080fd5b61051981600260008573ffffffffffffffffffffffffffffffffffffffff1673ffffffffffffffffffffffffffffffffffffffff16815260200190815260200160002060003373ffffffffffffffffffffffffffffffffffffffff1673ffffffffffffffffffffffffffffffffffffffff1681526020019081526020016000205461139290919063ffffffff16565b600260008473ffffffffffffffffffffffffffffffffffffffff1673ffffffffffffffffffffffffffffffffffffffff16815260200190815260200160002060003373ffffffffffffffffffffffffffffffffffffffff1673ffffffffffffffffffffffffffffffffffffffff168152602001908152602001600020819055507ff341246adaac6f497bc2a656f546ab9e182111d630394f0c57c710a59a2cb567823383600260008773ffffffffffffffffffffffffffffffffffffffff1673ffffffffffffffffffffffffffffffffffffffff16815260200190815260200160002060003373ffffffffffffffffffffffffffffffffffffffff1673ffffffffffffffffffffffffffffffffffffffff1681526020019081526020016000205460405161064a9493929190611ca9565b60405180910390a15050565b60065481565b600073ffffffffffffffffffffffffffffffffffffffff168273ffffffffffffffffffffffffffffffffffffffff16141561069657600080fd5b8173ffffffffffffffffffffffffffffffffffffffff166323b872dd3330846040518463ffffffff1660e01b81526004016106d393929190611cee565b6020604051808303816000875af11580156106f2573d6000803e3d6000fd5b505050506040513d601f19601f820116820180604052508101906107169190611d51565b61071f57600080fd5b6107ae81600260008573ffffffffffffffffffffffffffffffffffffffff1673ffffffffffffffffffffffffffffffffffffffff16815260200190815260200160002060003373ffffffffffffffffffffffffffffffffffffffff1673ffffffffffffffffffffffffffffffffffffffff168152602001908152602001600020546113a890919063ffffffff16565b600260008473ffffffffffffffffffffffffffffffffffffffff1673ffffffffffffffffffffffffffffffffffffffff16815260200190815260200160002060003373ffffffffffffffffffffffffffffffffffffffff1673ffffffffffffffffffffffffffffffffffffffff168152602001908152602001600020819055507fdcbc1c05240f31ff3ad067ef1ee35ce4997762752e3a095284754544f4c709d7823383600260008773ffffffffffffffffffffffffffffffffffffffff1673ffffffffffffffffffffffffffffffffffffffff16815260200190815260200160002060003373ffffffffffffffffffffffffffffffffffffffff1673ffffffffffffffffffffffffffffffffffffffff168152602001908152602001600020546040516108df9493929190611ca9565b60405180910390a15050565b80600260008073ffffffffffffffffffffffffffffffffffffffff1673ffffffffffffffffffffffffffffffffffffffff16815260200190815260200160002060003373ffffffffffffffffffffffffffffffffffffffff1673ffffffffffffffffffffffffffffffffffffffff16815260200190815260200160002054101561097457600080fd5b610a0381600260008073ffffffffffffffffffffffffffffffffffffffff1673ffffffffffffffffffffffffffffffffffffffff16815260200190815260200160002060003373ffffffffffffffffffffffffffffffffffffffff1673ffffffffffffffffffffffffffffffffffffffff1681526020019081526020016000205461139290919063ffffffff16565b600260008073ffffffffffffffffffffffffffffffffffffffff1673ffffffffffffffffffffffffffffffffffffffff16815260200190815260200160002060003373ffffffffffffffffffffffffffffffffffffffff1673ffffffffffffffffffffffffffffffffffffffff168152602001908152602001600020819055503373ffffffffffffffffffffffffffffffffffffffff166108fc829081150290604051600060405180830381858888f19350505050158015610ac9573d6000803e3d6000fd5b507ff341246adaac6f497bc2a656f546ab9e182111d630394f0c57c710a59a2cb56760003383600260008073ffffffffffffffffffffffffffffffffffffffff1673ffffffffffffffffffffffffffffffffffffffff16815260200190815260200160002060003373ffffffffffffffffffffffffffffffffffffffff1673ffffffffffffffffffffffffffffffffffffffff16815260200190815260200160002054604051610b7c9493929190611ca9565b60405180910390a150565b60056020528060005260406000206000915054906101000a900460ff1681565b6002602052816000526040600020602052806000526040600020600091509150505481565b60006003600083815260200190815260200160002090503373ffffffffffffffffffffffffffffffffffffffff168160010160009054906101000a900473ffffffffffffffffffffffffffffffffffffffff1673ffffffffffffffffffffffffffffffffffffffff1614610c3f57600080fd5b81816000015414610c4f57600080fd5b60016004600084815260200190815260200160002060006101000a81548160ff0219169083151502179055507f77de1da0be5f2d3b110d05c6694e5c4ff2d9da7cd23d84353ecf78c7b5acec618160000154338360020160009054906101000a900473ffffffffffffffffffffffffffffffffffffffff1684600301548560040160009054906101000a900473ffffffffffffffffffffffffffffffffffffffff1686600501548760060154604051610d0e9796959493929190611c3a565b60405180910390a15050565b600080fd5b60008054906101000a900473ffffffffffffffffffffffffffffffffffffffff1681565b600081118015610d5557506006548111155b610d5e57600080fd5b6005600082815260200190815260200160002060009054906101000a900460ff1615610d8957600080fd5b6005600082815260200190815260200160002060009054906101000a900460ff1615610db457600080fd5b6000600360008381526020019081526020016000209050610e5181600001548260010160009054906101000a900473ffffffffffffffffffffffffffffffffffffffff168360020160009054906101000a900473ffffffffffffffffffffffffffffffffffffffff1684600301548560040160009054906101000a900473ffffffffffffffffffffffffffffffffffffffff1686600501546113be565b6001600560008360000154815260200190815260200160002060006101000a81548160ff0219169083151502179055505050565b60015481565b610f1a34600260008073ffffffffffffffffffffffffffffffffffffffff1673ffffffffffffffffffffffffffffffffffffffff16815260200190815260200160002060003373ffffffffffffffffffffffffffffffffffffffff1673ffffffffffffffffffffffffffffffffffffffff168152602001908152602001600020546113a890919063ffffffff16565b600260008073ffffffffffffffffffffffffffffffffffffffff1673ffffffffffffffffffffffffffffffffffffffff16815260200190815260200160002060003373ffffffffffffffffffffffffffffffffffffffff1673ffffffffffffffffffffffffffffffffffffffff168152602001908152602001600020819055507fdcbc1c05240f31ff3ad067ef1ee35ce4997762752e3a095284754544f4c709d760003334600260008073ffffffffffffffffffffffffffffffffffffffff1673ffffffffffffffffffffffffffffffffffffffff16815260200190815260200160002060003373ffffffffffffffffffffffffffffffffffffffff1673ffffffffffffffffffffffffffffffffffffffff1681526020019081526020016000205460405161104c9493929190611ca9565b60405180910390a1565b61106c60016006546113a890919063ffffffff16565b6006819055506040518060e0016040528060065481526020013373ffffffffffffffffffffffffffffffffffffffff1681526020018573ffffffffffffffffffffffffffffffffffffffff1681526020018481526020018373ffffffffffffffffffffffffffffffffffffffff168152602001828152602001428152506003600060065481526020019081526020016000206000820151816000015560208201518160010160006101000a81548173ffffffffffffffffffffffffffffffffffffffff021916908373ffffffffffffffffffffffffffffffffffffffff16021790555060408201518160020160006101000a81548173ffffffffffffffffffffffffffffffffffffffff021916908373ffffffffffffffffffffffffffffffffffffffff1602179055506060820151816003015560808201518160040160006101000a81548173ffffffffffffffffffffffffffffffffffffffff021916908373ffffffffffffffffffffffffffffffffffffffff16021790555060a0820151816005015560c082015181600601559050507f9d33853d43e3607b4cc01fdc78338ff2dca6fef7db9232dae6d3eb55fbc3b10960065433868686864260405161123b9796959493929190611c3a565b60405180910390a150505050565b60036020528060005260406000206000915090508060000154908060010160009054906101000a900473ffffffffffffffffffffffffffffffffffffffff16908060020160009054906101000a900473ffffffffffffffffffffffffffffffffffffffff16908060030154908060040160009054906101000a900473ffffffffffffffffffffffffffffffffffffffff16908060050154908060060154905087565b60046020528060005260406000206000915054906101000a900460ff1681565b6000600260008473ffffffffffffffffffffffffffffffffffffffff1673ffffffffffffffffffffffffffffffffffffffff16815260200190815260200160002060008373ffffffffffffffffffffffffffffffffffffffff1673ffffffffffffffffffffffffffffffffffffffff16815260200190815260200160002054905092915050565b600081836113a09190611dad565b905092915050565b600081836113b69190611de1565b905092915050565b60006113e860646113da600154856119d790919063ffffffff16565b6119ed90919063ffffffff16565b905061148b61140082866113a890919063ffffffff16565b600260008873ffffffffffffffffffffffffffffffffffffffff1673ffffffffffffffffffffffffffffffffffffffff16815260200190815260200160002060003373ffffffffffffffffffffffffffffffffffffffff1673ffffffffffffffffffffffffffffffffffffffff1681526020019081526020016000205461139290919063ffffffff16565b600260008773ffffffffffffffffffffffffffffffffffffffff1673ffffffffffffffffffffffffffffffffffffffff16815260200190815260200160002060003373ffffffffffffffffffffffffffffffffffffffff1673ffffffffffffffffffffffffffffffffffffffff1681526020019081526020016000208190555061159a84600260008873ffffffffffffffffffffffffffffffffffffffff1673ffffffffffffffffffffffffffffffffffffffff16815260200190815260200160002060008973ffffffffffffffffffffffffffffffffffffffff1673ffffffffffffffffffffffffffffffffffffffff168152602001908152602001600020546113a890919063ffffffff16565b600260008773ffffffffffffffffffffffffffffffffffffffff1673ffffffffffffffffffffffffffffffffffffffff16815260200190815260200160002060008873ffffffffffffffffffffffffffffffffffffffff1673ffffffffffffffffffffffffffffffffffffffff168152602001908152602001600020819055506116ca81600260008873ffffffffffffffffffffffffffffffffffffffff1673ffffffffffffffffffffffffffffffffffffffff16815260200190815260200160002060008060009054906101000a900473ffffffffffffffffffffffffffffffffffffffff1673ffffffffffffffffffffffffffffffffffffffff1673ffffffffffffffffffffffffffffffffffffffff168152602001908152602001600020546113a890919063ffffffff16565b600260008773ffffffffffffffffffffffffffffffffffffffff1673ffffffffffffffffffffffffffffffffffffffff16815260200190815260200160002060008060009054906101000a900473ffffffffffffffffffffffffffffffffffffffff1673ffffffffffffffffffffffffffffffffffffffff1673ffffffffffffffffffffffffffffffffffffffff168152602001908152602001600020819055506117fa82600260008673ffffffffffffffffffffffffffffffffffffffff1673ffffffffffffffffffffffffffffffffffffffff16815260200190815260200160002060008973ffffffffffffffffffffffffffffffffffffffff1673ffffffffffffffffffffffffffffffffffffffff1681526020019081526020016000205461139290919063ffffffff16565b600260008573ffffffffffffffffffffffffffffffffffffffff1673ffffffffffffffffffffffffffffffffffffffff16815260200190815260200160002060008873ffffffffffffffffffffffffffffffffffffffff1673ffffffffffffffffffffffffffffffffffffffff1681526020019081526020016000208190555061190982600260008673ffffffffffffffffffffffffffffffffffffffff1673ffffffffffffffffffffffffffffffffffffffff16815260200190815260200160002060003373ffffffffffffffffffffffffffffffffffffffff1673ffffffffffffffffffffffffffffffffffffffff168152602001908152602001600020546113a890919063ffffffff16565b600260008573ffffffffffffffffffffffffffffffffffffffff1673ffffffffffffffffffffffffffffffffffffffff16815260200190815260200160002060003373ffffffffffffffffffffffffffffffffffffffff1673ffffffffffffffffffffffffffffffffffffffff168152602001908152602001600020819055507f0dddf4182dc0fc1a311cb75f049c97403c6b8a99cf6b2229a36e7c526acb3f8187878787878733426040516119c6989796959493929190611e37565b60405180910390a150505050505050565b600081836119e59190611eb5565b905092915050565b600081836119fb9190611f3e565b905092915050565b600080fd5b600073ffffffffffffffffffffffffffffffffffffffff82169050919050565b6000611a3382611a08565b9050919050565b611a4381611a28565b8114611a4e57600080fd5b50565b600081359050611a6081611a3a565b92915050565b6000819050919050565b611a7981611a66565b8114611a8457600080fd5b50565b600081359050611a9681611a70565b92915050565b60008060408385031215611ab357611ab2611a03565b5b6000611ac185828601611a51565b9250506020611ad285828601611a87565b9150509250929050565b611ae581611a66565b82525050565b6000602082019050611b006000830184611adc565b92915050565b600060208284031215611b1c57611b1b611a03565b5b6000611b2a84828501611a87565b91505092915050565b60008115159050919050565b611b4881611b33565b82525050565b6000602082019050611b636000830184611b3f565b92915050565b60008060408385031215611b8057611b7f611a03565b5b6000611b8e85828601611a51565b9250506020611b9f85828601611a51565b9150509250929050565b611bb281611a28565b82525050565b6000602082019050611bcd6000830184611ba9565b92915050565b60008060008060808587031215611bed57611bec611a03565b5b6000611bfb87828801611a51565b9450506020611c0c87828801611a87565b9350506040611c1d87828801611a51565b9250506060611c2e87828801611a87565b91505092959194509250565b600060e082019050611c4f600083018a611adc565b611c5c6020830189611ba9565b611c696040830188611ba9565b611c766060830187611adc565b611c836080830186611ba9565b611c9060a0830185611adc565b611c9d60c0830184611adc565b98975050505050505050565b6000608082019050611cbe6000830187611ba9565b611ccb6020830186611ba9565b611cd86040830185611adc565b611ce56060830184611adc565b95945050505050565b6000606082019050611d036000830186611ba9565b611d106020830185611ba9565b611d1d6040830184611adc565b949350505050565b611d2e81611b33565b8114611d3957600080fd5b50565b600081519050611d4b81611d25565b92915050565b600060208284031215611d6757611d66611a03565b5b6000611d7584828501611d3c565b91505092915050565b7f4e487b7100000000000000000000000000000000000000000000000000000000600052601160045260246000fd5b6000611db882611a66565b9150611dc383611a66565b925082821015611dd657611dd5611d7e565b5b828203905092915050565b6000611dec82611a66565b9150611df783611a66565b9250827fffffffffffffffffffffffffffffffffffffffffffffffffffffffffffffffff03821115611e2c57611e2b611d7e565b5b828201905092915050565b600061010082019050611e4d600083018b611adc565b611e5a602083018a611ba9565b611e676040830189611ba9565b611e746060830188611adc565b611e816080830187611ba9565b611e8e60a0830186611adc565b611e9b60c0830185611ba9565b611ea860e0830184611adc565b9998505050505050505050565b6000611ec082611a66565b9150611ecb83611a66565b9250817fffffffffffffffffffffffffffffffffffffffffffffffffffffffffffffffff0483118215151615611f0457611f03611d7e565b5b828202905092915050565b7f4e487b7100000000000000000000000000000000000000000000000000000000600052601260045260246000fd5b6000611f4982611a66565b9150611f5483611a66565b925082611f6457611f63611f0f565b5b82820490509291505056fea26469706673582212205387665ac090ea5e87c36caf7b1748d2f2b5d2087ed2743b45a5876f272b9c9e64736f6c634300080b0033",
  "immutableReferences": {},
  "source": "pragma solidity >=0.4.22 <0.9.0;\r\nimport \"@openzeppelin/contracts/utils/math/SafeMath.sol\";\r\nimport \"./UdhariToken.sol\";\r\n\r\ncontract Exchange{\r\n\r\n    using SafeMath for uint;\r\n\r\n    //Variables\r\n    address public feeAccount;              //account that stores fees\r\n    uint public feePercent;               //fees Percentage\r\n    address constant ETHER = address(0); //Store ETHER in tokens mapping wit blank address\r\n\r\n    //Events\r\n    event Deposit(address token, address user, uint amount, uint balance);\r\n    event Withdraw(address token, address user, uint amount, uint balance);\r\n    event Order(uint id,address user,address tokenGet,uint amountGet,address tokenGive,uint amountGive,uint timestamp);\r\n    event Cancel(uint id,address user,address tokenGet,uint amountGet,address tokenGive,uint amountGive,uint timestamp);\r\n    event Trade(uint id,address user,address tokenGet,uint amountGet,address tokenGive,uint amountGive,address userFill,uint timestamp);\r\n\r\n    //MAPPING\r\n\r\n    //\r\n    mapping(address => mapping(address => uint)) public tokens;\r\n    //store the order\r\n    mapping(uint => _Order) public orders;\r\n    //canceled order\r\n    mapping(uint=> bool) public orderCancelled;\r\n    mapping(uint=> bool) public orderFilled;\r\n\r\n    //model the order\r\n    struct _Order{\r\n        uint id;\r\n        address user;\r\n        address tokenGet;\r\n        uint amountGet;\r\n        address tokenGive;\r\n        uint amountGive;\r\n        uint timestamp;\r\n    }\r\n\r\n    uint public orderCount;\r\n\r\n    \r\n\r\n\r\n    constructor(address _feeAccount, uint _feePercent) public {\r\n        feeAccount= _feeAccount;            \r\n        feePercent= _feePercent;            \r\n        \r\n    }\r\n\r\n    //Fallback: reverts if ether is sent to this smart contract\r\n    function fallback() external {\r\n        revert();\r\n    }\r\n\r\n    function depositEther() payable public{\r\n        tokens[ETHER][msg.sender]= tokens[ETHER][msg.sender].add(msg.value);\r\n        emit Deposit(ETHER, msg.sender, msg.value,tokens[ETHER][msg.sender]);\r\n    }\r\n\r\n    function withdrawEther(uint _amount)  public {\r\n        require(tokens[ETHER][msg.sender]>= _amount);\r\n        tokens[ETHER][msg.sender]= tokens[ETHER][msg.sender].sub(_amount);\r\n        payable(msg.sender).transfer(_amount);\r\n        emit Withdraw(ETHER, msg.sender, _amount, tokens[ETHER][msg.sender]);\r\n    }\r\n\r\n    function depositToken(address _token, uint _amount) public {\r\n        require(_token!= ETHER);\r\n        require(UdhariToken(_token).transferFrom(msg.sender,address(this), _amount));\r\n        tokens[_token][msg.sender]= tokens[_token][msg.sender].add(_amount);\r\n        emit Deposit(_token, msg.sender, _amount,tokens[_token][msg.sender]);\r\n\r\n    }\r\n\r\n    function withdrawTokens(address _token, uint _amount) public {\r\n        require(_token != ETHER);\r\n        require(tokens[_token][msg.sender]>= _amount);\r\n        tokens[_token][msg.sender]= tokens[_token][msg.sender].sub(_amount);\r\n        emit Withdraw(_token, msg.sender, _amount, tokens[_token][msg.sender]);\r\n    }\r\n\r\n    function balanceOf(address _token, address _user) public view returns(uint) {\r\n        return tokens[_token][_user];\r\n    }\r\n\r\n    //add order to storage\r\n    function makeOrder(address _tokenGet, uint _amountGet, address _tokenGive, uint _amountGive) public{\r\n        orderCount= orderCount.add(1);\r\n        orders[orderCount]= _Order(orderCount, msg.sender, _tokenGet,_amountGet,_tokenGive,_amountGive, block.timestamp);\r\n        emit Order(orderCount, msg.sender, _tokenGet, _amountGet, _tokenGive, _amountGive, block.timestamp);\r\n    }\r\n\r\n    //marks cancelled order\r\n    function cancelOrder(uint _id) public {\r\n        //fetchin order\r\n        _Order storage _order= orders[_id];\r\n\r\n        //must be senders order\r\n        require(address(_order.user)== msg.sender);\r\n        require(_order.id ==_id);\r\n\r\n        orderCancelled[_id]= true;\r\n        emit Cancel( _order.id, msg.sender, _order.tokenGet, _order.amountGet, _order.tokenGive, _order.amountGive, _order.timestamp);\r\n    }\r\n\r\n    function fillOrder(uint _id) public {\r\n        require(_id>0 && _id<= orderCount);\r\n        require(!orderFilled[_id]);\r\n        require(!orderFilled[_id]);\r\n        _Order storage _order= orders[_id];\r\n        _trade(_order.id,_order.user,_order.tokenGet,_order.amountGet,_order.tokenGive,_order.amountGive);\r\n        orderFilled[_order.id]= true;\r\n    }\r\n\r\n    function _trade(uint _orderId,address _user,address _tokenGet,uint _amountGet,address _tokenGive,uint _amountGive) internal {\r\n        \r\n        uint _feeAmount= _amountGive.mul(feePercent).div(100);\r\n\r\n        \r\n        tokens[_tokenGet][msg.sender]=tokens[_tokenGet][msg.sender].sub(_amountGet.add(_feeAmount));\r\n        tokens[_tokenGet][_user]= tokens[_tokenGet][_user].add(_amountGet);\r\n        tokens[_tokenGet][feeAccount]= tokens[_tokenGet][feeAccount].add(_feeAmount);\r\n        tokens[_tokenGive][_user]= tokens[_tokenGive][_user].sub(_amountGive);\r\n        tokens[_tokenGive][msg.sender]= tokens[_tokenGive][msg.sender].add(_amountGive);\r\n\r\n        emit Trade(_orderId, _user, _tokenGet, _amountGet, _tokenGive, _amountGive,msg.sender,  block.timestamp);\r\n\r\n\r\n    }\r\n\r\n\r\n\r\n\r\n}\r\n\r\n\r\n//Deposite & Withdraw\r\n//Manage Orders  - make or cancel\r\n//Handle trades =Charge fees\r\n\r\n//TODO:\r\n//1 Deposide ether          00\r\n//2 withdraw ether          00\r\n//3 deposite token          00\r\n//4 withdraw token          00\r\n//5 check balance           00\r\n//6 make order              00\r\n//8 cancel order            00\r\n//9 fill order\r\n//10 charge fees",
  "sourcePath": "/mnt/c/Users/manth/Desktop/BlockChain/Minor/lalaji_exchange/src/contracts/Exchange.sol",
  "compiler": {
    "name": "solc",
    "version": "0.8.11+commit.d7f03943.Emscripten.clang"
  },
  "schemaVersion": "3.4.4",
  "updatedAt": "2022-02-23T10:45:43.766Z",
  "networkType": "ethereum",
  "devdoc": {
    "kind": "dev",
    "methods": {},
    "version": 1
  },
  "userdoc": {
    "kind": "user",
    "methods": {},
    "version": 1
  }
}